:020000040800F2
:100000000000022069100008B1100008B1100008BB
:10001000B1100008B1100008B11000080000000085
:10002000000000000000000000000000B110000807
:10003000B110000800000000B1100008B110000865
:10004000B1100008B1100008B1100008B11000088C
:10005000B1100008B1100008B1100008B11000087C
:10006000B1100008B1100008B1100008B11000086C
:10007000B1100008B1100008B1100008B11000085C
:10008000B1100008B1100008B1100008B11000084C
:10009000B1100008B1100008B1100008B11000083C
:1000A000B1100008B1100008B1100008B11000082C
:1000B000B1100008B1100008B1100008B11000081C
:1000C000B1100008B1100008B1100008B11000080C
:1000D000B1100008B1100008B1100008B1100008FC
:1000E000B1100008B1100008B1100008B1100008EC
:1000F000B1100008B1100008B1100008B1100008DC
:10010000B1100008B1100008B1100008B1100008CB
:10011000B1100008B1100008B11000089D070008D8
:10012000B1100008B1100008B1100008B1100008AB
:10013000B1100008B1100008B1100008B11000089B
:10014000B1100008B1100008B1100008B11000088B
:10015000B1100008B1100008B1100008B11000087B
:10016000B1100008B1100008B1100008B11000086B
:10017000B1100008B1100008B1100008B11000085B
:08018000B1100008B1100008E5
:1001880010B5054C237833B9044B13B10448AFF3C9
:1001980000800123237010BD4804002000000000E7
:1001A8009C130008084B10B51BB108480849AFF369
:1001B80000800848036803B910BD074B002BFBD02B
:1001C800BDE81040184700BF000000009C1300085D
:1001D8004C0400204404002000000000154B002BB4
:1001E80008BF134B9D46A3F5803A00218B460F4666
:1001F8001348144A121A00F091FF0F4B002B00D03D
:1002080098470E4B002B00D098470020002104008F
:100218000D000D48002802D00C4801F041F800F00C
:1002280055FF2000290000F0F5FE00F03FFF00BF59
:1002380000000800000000000000000000000000AE
:10024800480400206C040020A9120008B512000818
:10025800394B3A481A68002142F001021A60996045
:100268001A6822F0847222F480321A6058601A6880
:1002780082B022F480221A60D960009101911A6834
:1002880042F480321A601A4603E0009BB3F5A06F6F
:1002980009D0136803F400330193009B01330093E2
:1002A800019B002BF1D0244B1B6813F4003318BFBB
:1002B80001230193019B012B0BD0214BD3F88820FC
:1002C8004FF0006142F47002C3F88820996002B0D0
:1002D8007047194B1B491A6C1B4842F080521A642C
:1002E8000A6842F480420A609A689A609A6842F4FE
:1002F80000429A609A6842F4A0529A6058601A685C
:1003080042F080721A601A4611680B4B8901FBD5BE
:100318000E4A40F2056111609A6822F003029A6061
:100328009A6842F002029A601A46936803F00C0336
:10033800082BFAD1C1E700BF003802401030002472
:1003480000ED00E00070004008544007003C024007
:100358001848836803F00C03042B28D0082B09D015
:10036800154B144A15499268C2F303128A5CD340AC
:100378000B6170474368416813F4800F436818BFE6
:100388000F4801F03F020CBF0B49B0FBF2F1C3F379
:10039800881308BFB1FBF2F101FB03F2054B5B6860
:1003A800C3F3014301335B00B2FBF3F3D9E7044B1A
:1003B800D7E700BF003802400024F4000400002002
:1003C80000127A0008B5052000F0E4F800F0BEFD40
:1003D800AE2000F0DBFD092000F0CAFD022000F08D
:1003E800C7FD00F001FE052000F0D4F800F0AEFDD6
:1003F800AE2000F0CBFD0C2000F0BAFD1F2000F06D
:10040800B7FD00F0F1FD052000F0C4F800F09EFDF6
:10041800AE2000F0BBFD042000F0AAFD002000F093
:10042800A7FD00F0E1FD052000F0B4F800F08EFD16
:10043800AE2000F0ABFD062000F09AFD002000F091
:1004480097FD00F0D1FD052000F0A4F800F07EFD36
:10045800AE2000F09BFD052000F08AFD002000F092
:1004680087FD00F0C1FD052000F094F800F06EFD56
:10047800AE2000F08BFD082000F07AFD502000F03F
:1004880077FD00F0B1FD0520BDE8084000F082B816
:1004980010B5044600F05AFDAE2000F077FD204666
:1004A80000F066FD00F052FDAF2000F06FFD002067
:1004B80000F082FD044600F097FD204610BD00BF05
:1004C80010B5044600F042FDAE2000F05FFD204666
:1004D80000F04EFD00F03AFDAF2000F057FD01207E
:1004E80000F06AFD012000F067FD0446002000F0DE
:1004F80063FD40EA042080B210BD00BFF0B5064697
:1005080083B006200C461546FFF7C2FF0420FFF70C
:10051800BFFF0023E7B2019307E0FFF7B9FF0446E6
:100528000420FFF7B5FFA04206D1019BAB424FF074
:100538000600F2DB03B0F0BD07203946019CFFF747
:10054800BFFF019B26F8140001330193EDE700BFBC
:100558000E490F4A0B6C30B443F0040343F67F6531
:1005680000240B641585D062546213889BB243F053
:1005780001031380138A0649DB07FBD50B8A23F096
:1005880001031B041B0C0B8230BC7047003802406F
:100598000008004019491A4A0B6C70B443F0400334
:1005A80053264FF47A7584240B641685D56214801B
:1005B800938A9BB243F00103938213889BB243F062
:1005C80001031380114650B1138ADB07FCD50B8A4F
:1005D80023F001031B041B0C01380B82F4D10849DA
:1005E800064A0B8823F001031B041B0C0B80136CB9
:1005F80023F04003136470BC704700BF003802400A
:10060800001800401849194A0B6C70B443F04003B5
:100618000026542584240B641685D5621480938A99
:100628009BB243F00103938213889BB243F001030A
:100638001380114650B1138ADB07FCD50B8A23F0CF
:1006480001031B041B0C01380B82F4D10749064A2D
:100658000B8823F001031B041B0C0B80136C23F085
:100668004003136470BC7047003802400018004013
:1006780070B40948094B026C53264FF0FF358424A7
:10068800002142F0080202641E85DD621C80998008
:1006980070BC5962704700BF00380240000C00402F
:1006A800054A938A9BB243F00103938213889BB255
:1006B80043F0010313807047000C0040044A506A5D
:1006C800138823F001031B041B0C1380704700BF21
:1006D800000C00400E48026C4FF0804370B442F0AA
:1006E800010253264FF0FF358424002102641E8541
:1006F800DD621C80998059629A8A92B242F00102A6
:100708009A821A8892B242F001021A8070BC70472D
:10071800003802404FF08043586A70474FF08043DA
:100728005B6A834205D3084483422CBF0020012022
:100738007047C0431844814294BF0020012070478D
:10074800F0B4114C114B226C1148002142F02002E8
:1007580053274FF47A76842522641F85DE621D8034
:10076800998059629A8A92B2012542F001024FF4A7
:1007780000049A829D8180F8371344601A8892B2E7
:100788002A431A80F0BC7047003802400014004029
:1007980000E100E0054B1A8AD20705D504490A682A
:1007A800002001320A601882704700BF0014004020
:1007B80064040020014B1868704700BF64040020DF
:1007C800084B1B68834205D3084483422CBF002092
:1007D80001207047C0431844814294BF0020012083
:1007E800704700BF64040020114A124B116B41F09E
:1007F800010110B41163116C0F4C41F40031116404
:100808001A6842F0A0021A601A6A42F4EE421A62AA
:100818009A6842F020029A609A6880B242F0800298
:1008280042F20C019A602081A1815DF8044B704767
:1008380000380240000002400044004003490B8891
:10084800024A5B06FBD580B29080704700440040A6
:100858000D4A70B4441E00F2FF350D26104614F8F8
:10086800011F49B113885B06FCD589B281802378C2
:100878000A2B03D0AC42F2D170BC704713885B06D8
:10088800FCD58680F6E700BF004400400FB42DE990
:10089800F0418CB012AB53F8046B01933278BAB1C3
:1008A800754C002327461D4631464FF00D08252A72
:1008B80019D023885806FCD592B2BA800B780A2B37
:1008C8000BD00135ADB22B46725D7119002AEED1FD
:1008D8000CB0BDE8F04104B0704723885B06FCD536
:1008E800A7F80480EDE733445A78002AE9D0623A41
:1008F800162A79D8DFE802F05C6E4C782878787888
:100908007878787878787878781F787878780C009C
:100918009B78622B7ED0682B00F08B80772B019B15
:1009280000F09C801A1D013D1B680192ADB2009336
:100938004FF400604BE0019B1A1D18680192FFF705
:1009480087FF0135ADB2BCE7019B073323F00703EE
:10095800D3E900010833420F21F0784E00280193B3
:1009680042EACE0371F10002B8BF43F00043002011
:1009780001F08041009350EA010338D14FF48070B0
:1009880002AA694600F0D8F802A8FFF761FFD8E785
:100998009B78622B30D0682B53D0772B019B64D087
:1009A8001A1D013D1B680192ADB2009320200EE094
:1009B8009B78622B27D0682B34D0772B019B47D0AC
:1009C8001A1D013D1B680192ADB200930420013548
:1009D800ADB2D5E7019B191D1A78019123885B06F2
:1009E800FCD593B2BB80ACE700230093A9E7009B3A
:1009F80043F080430093C1E7019B1A1D1B680192D5
:100A080000930820E3E7019B1A1D1B6801920093DD
:100A18000120DCE7019B1A1D1B68019200934FF42B
:100A28000070D4E7019B1A1D1B68019200930220F5
:100A3800CDE7019B1A1D1B68019200934FF480605B
:100A4800C5E7019B1A1D1B68019200931020BEE7A1
:100A58001A1D1B68019200930420B8E71A1D1B6831
:100A6800019200934FF40060B1E71A1D1B680192D0
:100A780000932020ABE700BF004400400D498B895C
:100A88009BB243F4005343F004038B810B88094A5B
:100A98009B06FBD59088138823F020031B041B0CAE
:100AA8001380938923F004031B041B0CC0B29381A9
:100AB800704700BF00440040F0B40D4A0D4F00F1EC
:100AC8000A053026914205F8016D08D3312400E06B
:100AD8001C46891A631C9142DBB2F9D22C70A7FB21
:100AE800023285424FEAD202ECD1F0BC704700BF17
:100AF80000CA9A3BCDCCCCCC70B40B880025093009
:100B08002C46ADB90678302E0FD0D6540B88013359
:100B18009BB20B8001250134E4B20A2C00F1FF30AE
:100B2800EFD10021D15470BC7047092CF3D1ECE708
:100B38000578D554EAE700BF2DE9F04784B00023D3
:100B4800102815461370ADF8023000F0548124D9EE
:100B5800B0F5007F4FD040F28280B0F5806F64D04E
:100B6800B0F5006F16D11A4601240B6800E0044660
:100B78001B0F092B03F130008ABF3733A854AB543D
:100B8800601C0B6880B21B0109280B602246EED15D
:100B980000232B7204B0BDE8F087022800F014810E
:100BA80017D9042840F024810B6805F1200030246F
:100BB8003126002BB4BF167014700B6801325B002D
:100BC80082420B60F5D1002385F8203004B0BDE8DF
:100BD800F0870128DED10B6805F1080030263124A2
:100BE8001F064CBF147016700B6801325B008242FE
:100BF8000B60F5D1CCE71A460B680124C3F3031345
:100C0800092BD8B200F1300386BF3730A854AB5453
:100C1800601C0B6880B21B0103280B6040F0D18078
:100C28000023AB7004B0BDE8F0871A460B68144681
:100C3800C3F30333092BD8B200F130038ABF37302E
:100C48002B55285501320B6892B21B01042A144611
:100C58000B60EDD100232B7104B0BDE8F08720288C
:100C680000F0C980B0F5807F94D191ED007AB5EE9F
:100C7800C07AF1EE10FA00F1FA80F7EE007AB4EEDD
:100C8800E77AF1EE10FA00F1DC8040F301810023ED
:100C9800B2EE046A67EE867A0133B4EEE77AF1EED3
:100CA80010FA9BB2F2EE046AF4DCC7EEA67A5C1E78
:100CB800A4B24FF020080DF10E077949DFF8ECC116
:100CC800384601AE4FF0300EC7EE277A9FED757AA1
:100CD800FCEEE76A16EE902AF8EE666A77EEE67A98
:100CE80067EE877AFCEEE77A17EE90AA914200F851
:100CF80001ED0BD84FF0310900E09946521A09F17D
:100D080001038A42DBB2F8D280F80090ACFB0131D3
:100D1800B0424FEAD101E9D10DF102094946304606
:100D28002A46FFF7E9FE5E4ADFF880E139463020BF
:100D3800524501F8010D0CD84FF0310C00E09C46EB
:100D4800C2EB0A0A0CF101039245DBB2F7D281F833
:100D580000C0AEFB02328E424FEAD202E8D12E2307
:100D680049462A4630468DF80730FFF7C5FEBDF8DC
:100D78000220531C65219BB2B8F12D0FA954ADF880
:100D8800023058D0464ADFF824E13020A24207F862
:100D9800010D08D8312100E01946A41A4B1C9442D1
:100DA800DBB2F9D23970AEFB0232BE424FEAD20250
:100DB800ECD1304649462A46FFF79EFE04B0BDE80E
:100DC800F0872246044619E70B6805F11000302623
:100DD80031241B044CBF147016700B6801325B0081
:100DE80082420B60F5D100232B7404B0BDE8F08774
:100DF80008287FF4CFAE0A68002A40DB2849DFF8CC
:100E0800ACE001AE0DF10E043027914204F8017DEB
:100E180008D8312000E01846521A431C8A42DBB237
:100E2800F9D22070AEFB0131B4424FEAD101ECD1C6
:100E38000DF10209BDE7023205F80380ADF8022082
:100E4800A0E7DFED197AB4EEE77AF1EE10FA24D5CF
:100E5800F0EE676A012467EEA67A0134B4EEE77A09
:100E6800F1EE10FAA4B2F6D44FF02D0823E72D22A4
:100E78000123B1EE477A2A70ADF80230FDE62D2342
:100E88002B700A68012352420A60ADF80230B5E7B8
:100E98004FF6FF74DFED047A0BE70124E4E700BFA7
:100EA80000CA9A3B00007A44CDCCCC3DCDCCCCCC0A
:100EB8002349244B086C244A40F4001010B40864F9
:100EC800086B40F00200086319886FEA41416FEA35
:100ED800514189B219801988C1F30E01198011682E
:100EE80041F420411160516841F0C001516091689E
:100EF80041F420419160916841F470419160D1685A
:100F080041F4A041D160116A41F0884111621A8907
:100F180092B242F480421A811A8822F00102120425
:100F2800120C1024502003211A809C809883198465
:100F38001A885DF8044B92B242F001021A80704799
:100F4800003802400054004000040240074A138859
:100F58009BB243F48063138013889BB243F480737D
:100F68001380938ADB07FCD5704700BF005400400C
:100F780005498A8A044B1206FBD580B218829A8AE0
:100F88005207FCD5704700BF0054004082B0084AA1
:100F98008DF807009DF807301382938A04499B0750
:100FA800FBD58B8A098B034A0B43137002B0704739
:100FB80000540040680400200A4A138858B19BB2C4
:100FC80043F48063138007498B8A064A5B06FBD586
:100FD800108AC0B2704723F480631B041B0C138073
:100FE800F1E700BF00540040044A13889BB243F461
:100FF8000073138013889B05FCD47047005400408D
:10100800CC130008000000204404002048040020FD
:101018006C04002000B52D2093B0FFF7E5FBFFF727
:1010280047FFFFF7CFF902A803212022FFF766FA4E
:1010380000230193019B1F2BF5DC019B074812AA93
:1010480002EB430333F8401CFFF720FC019B0133FC
:101058000193019B1F2BF0DDE5E700BF8813000813
:10106800002103E00B4B5B58435004310A480B4BFB
:1010780042189A42F6D30A4A02E0002342F8043B97
:10108800084B9A42F9D3FFF7E3F800F01FF8FFF78F
:10109800C1FF7047CC130008000000204404002062
:1010A800480400206C040020FEE7000008B5002179
:1010B800044600F08BF8044B1868C36B03B19847DB
:1010C800204600F075F900BF9813000870B50F4E60
:1010D8000F4D761BB61018BF002405D0013455F803
:1010E800043B9847A642F9D10A4E0B4D761B00F0F7
:1010F80053F9B61018BF002406D0013455F8043B44
:101108009847A642F9D170BD70BD00BFC013000852
:10111800C0130008C8130008C013000870B484077F
:1011280046D0541E002A41D0CDB2034602E0621ECA
:10113800E4B3144603F8015B9A07F8D1032C2ED9BF
:10114800CDB245EA05250F2C45EA054519D903F125
:1011580010022646103E0F2E42F8105C42F80C5C36
:1011680042F8085C42F8045C02F11002F2D8A4F1DB
:10117800100222F00F0204F00F041032032C134463
:101188000DD91E462246043A032A46F8045BFAD8CB
:10119800221F22F003020432134404F003042CB18A
:1011A800C9B21C4403F8011BA342FBD170BC7047B1
:1011B80014460346C2E700BF024B13B1024800F0D1
:1011C8006FB8704700000000B51200082DE9F04F15
:1011D800314B83B01B68009303F5A47381460E4618
:1011E8000193009BD3F8487127B3DDF804A07C680D
:1011F800651E0ED4013407EB84044FF00008E6B1F5
:10120800D4F80031B34218D0013D6B1CA4F104049A
:10121800F5D1224B73B17B68002B36D13B68002B8C
:1012280034D03846CAF80030AFF30080DAF80070DE
:10123800002FDCD103B0BDE8F08F7B682268013B4A
:10124800AB420CBF7D60C4F80080002ADCD0D7F820
:101258008831D7F804B00121A940194208D1904734
:101268007B685B45BDD1DAF80030BB42CCD0B8E72B
:10127800D7F88C31194204D14846D4F880109047E9
:10128800EEE7D4F880009047EAE73B68BA461F4685
:10129800002FACD1CEE700BF981300080000000073
:1012A800014600200246034600F016B838B5084B40
:1012B800084DED1AAC1018BFED1805D0013C55F8D3
:1012C800043D9847002CF9D1BDE8384000F06AB8D1
:1012D800C8130008CC1300082DE9F047254C2568F1
:1012E800D5F848410646884692469946CCB3606888
:1012F8001F2818DC431C7EB104EB80050121C5F8CA
:1013080088A0D4F8887101FA00F21743022EC4F8B5
:101318008871C5F808911ED00230636044F82080B7
:101328000020BDE8F087144B03B34FF4C870AFF347
:1013380000800446D0B1D5F84831002780E88800FD
:10134800C5F8484138460123C4F88871C4F88C713F
:10135800002EE1D0D0E7D4F88C110A43C4F88C21D0
:10136800DAE705F5A674C5F84841C0E74FF0FF3045
:10137800BDE8F0879813000800000000FEE700BFF2
:10138800444154413A25640A00000000430000002B
:101398001800002000000000F8B500BFF8BC08BC29
:1013A8009E467047F8B500BFF8BC08BC9E4670471B
:0813B8002CEEFF7F0100000094
:0813C000C1110008AD01000895
:0413C800890100088F
:1013CC000000000000000000000000000102030407
:1013DC0006070809007A030A000000000403002035
:1013EC006C030020D403002000000000000000006B
:1013FC0000000000000000000000000000000000E1
:10140C000000000000000000000000009413000821
:10141C0000000000000000000000000000000000C0
:10142C0000000000000000000000000000000000B0
:10143C0000000000000000000000000000000000A0
:10144C000000000000000000000000000000000090
:10145C000000000000000000000000000000000080
:10146C000000000000000000000000000000000070
:10147C000000000000000000000000000000000060
:10148C0001000000000000000E33CDAB34126DE6FD
:10149C00ECDE05000B000000000000000000000066
:1014AC000000000000000000000000000000000030
:1014BC000000000000000000000000000000000020
:1014CC000000000000000000000000000000000010
:1014DC000000000000000000000000000000000000
:04180C0018000020A0
:0418100000000000D4
:040000050800106976
:00000001FF
